{
  "_format": "hh-sol-artifact-1",
  "contractName": "Winner",
  "sourceName": "contracts/Winner.sol",
  "abi": [
    {
      "inputs": [
        {
          "internalType": "address",
          "name": "other",
          "type": "address"
        }
      ],
      "name": "callWin",
      "outputs": [],
      "stateMutability": "nonpayable",
      "type": "function"
    }
  ],
  "bytecode": "0x608060405234801561001057600080fd5b50610297806100206000396000f3fe608060405234801561001057600080fd5b506004361061002b5760003560e01c8063b6d1fdde14610030575b600080fd5b61004a600480360381019061004591906101ac565b61004c565b005b60008173ffffffffffffffffffffffffffffffffffffffff166040516024016040516020818303038152906040527f732b7a8d000000000000000000000000000000000000000000000000000000007bffffffffffffffffffffffffffffffffffffffffffffffffffffffff19166020820180517bffffffffffffffffffffffffffffffffffffffffffffffffffffffff83818316178352505050506040516100f5919061024a565b6000604051808303816000865af19150503d8060008114610132576040519150601f19603f3d011682016040523d82523d6000602084013e610137565b606091505b505090508061014557600080fd5b5050565b600080fd5b600073ffffffffffffffffffffffffffffffffffffffff82169050919050565b60006101798261014e565b9050919050565b6101898161016e565b811461019457600080fd5b50565b6000813590506101a681610180565b92915050565b6000602082840312156101c2576101c1610149565b5b60006101d084828501610197565b91505092915050565b600081519050919050565b600081905092915050565b60005b8381101561020d5780820151818401526020810190506101f2565b60008484015250505050565b6000610224826101d9565b61022e81856101e4565b935061023e8185602086016101ef565b80840191505092915050565b60006102568284610219565b91508190509291505056fea264697066735822122010a9d98244467499a9b6a93fd25490409e08c930e70af8e49f5349000a6aa29364736f6c63430008180033",
  "linkReferences": {},
  "deployedLinkReferences": {}
}